{
  "_format": "hh-sol-artifact-1",
  "contractName": "Lucky",
  "sourceName": "contracts/Lucky.sol",
  "abi": [
    {
      "inputs": [
        {
          "internalType": "address",
          "name": "",
          "type": "address"
        }
      ],
      "name": "Users",
      "outputs": [
        {
          "internalType": "uint256",
          "name": "",
          "type": "uint256"
        }
      ],
      "stateMutability": "view",
      "type": "function"
    },
    {
      "inputs": [],
      "name": "getMoney",
      "outputs": [
        {
          "internalType": "uint256",
          "name": "",
          "type": "uint256"
        }
      ],
      "stateMutability": "view",
      "type": "function"
    },
    {
      "inputs": [],
      "name": "saveMoney",
      "outputs": [],
      "stateMutability": "payable",
      "type": "function"
    },
    {
      "inputs": [],
      "name": "withdrawMoney",
      "outputs": [],
      "stateMutability": "nonpayable",
      "type": "function"
    }
  ],
  "bytecode": "0x608060405234801561001057600080fd5b50610409806100206000396000f3fe60806040526004361061003f5760003560e01c80632466de241461004457806398e1b4101461004e57806399b956a014610079578063ac446002146100b6575b600080fd5b61004c6100cd565b005b34801561005a57600080fd5b5061006361015b565b60405161007091906102a3565b60405180910390f35b34801561008557600080fd5b506100a0600480360381019061009b9190610321565b6101a1565b6040516100ad91906102a3565b60405180910390f35b3480156100c257600080fd5b506100cb6101b9565b005b346000803373ffffffffffffffffffffffffffffffffffffffff1673ffffffffffffffffffffffffffffffffffffffff16815260200190815260200160002054610117919061037d565b6000803373ffffffffffffffffffffffffffffffffffffffff1673ffffffffffffffffffffffffffffffffffffffff16815260200190815260200160002081905550565b60008060003373ffffffffffffffffffffffffffffffffffffffff1673ffffffffffffffffffffffffffffffffffffffff16815260200190815260200160002054905090565b60006020528060005260406000206000915090505481565b60008060003373ffffffffffffffffffffffffffffffffffffffff1673ffffffffffffffffffffffffffffffffffffffff1681526020019081526020016000205490503373ffffffffffffffffffffffffffffffffffffffff166108fc829081150290604051600060405180830381858888f19350505050158015610242573d6000803e3d6000fd5b5060008060003373ffffffffffffffffffffffffffffffffffffffff1673ffffffffffffffffffffffffffffffffffffffff1681526020019081526020016000208190555050565b6000819050919050565b61029d8161028a565b82525050565b60006020820190506102b86000830184610294565b92915050565b600080fd5b600073ffffffffffffffffffffffffffffffffffffffff82169050919050565b60006102ee826102c3565b9050919050565b6102fe816102e3565b811461030957600080fd5b50565b60008135905061031b816102f5565b92915050565b600060208284031215610337576103366102be565b5b60006103458482850161030c565b91505092915050565b7f4e487b7100000000000000000000000000000000000000000000000000000000600052601160045260246000fd5b60006103888261028a565b91506103938361028a565b9250827fffffffffffffffffffffffffffffffffffffffffffffffffffffffffffffffff038211156103c8576103c761034e565b5b82820190509291505056fea2646970667358221220c6ab5d32b88f7f795e4ca9fbfed761bddf000f248216ac9fded1a6dd62aeb81264736f6c63430008090033",
  "linkReferences": {},
  "deployedLinkReferences": {}
}